:100000000C94E4000C940C010C940C010C940C0165
:100010000C940C010C940C010C940C010C940C012C
:100020000C940C010C940C010C940C050C947E05A2
:100030000C940C010C940C010C940C010C940C010C
:100040000C940C010C940C010C940C010C940C01FC
:100050000C940C010C940C010C940C010C94BA033C
:100060000C940C010C940C010C940C010C940C01DC
:100070000C940C010C940C010C940C010C940C01CC
:100080000C940C010C940C010C940C010C940C01BC
:100090000C940C010C940C010C940C010C940C01AC
:1000A0000C940C010C940C010C940C018F01920126
:1000B000810185018B01B301B301B30196019A015E
:1000C0009E01A401A801B301AE01000000002400BC
:1000D00027002A002D003000000000002500280025
:1000E0002B002E0031000000000023002600290014
:1000F0002C002F000404040404030405020202027D
:1001000004030202020206060606060604040202B0
:100110000204040408020110408040102040804086
:10012000800802040180402010020110801020404D
:1001300040200000000200090F0000030401000C31
:1001400000000000000000000000000000000000AF
:1001500000080B0002020201000904000001020273
:1001600000000524001001052401010104240206F9
:100170000524060001070581031000400904010061
:10018000020A000000070502024000000705830282
:100190004000000403090412010002EF0201404183
:1001A00023378000010102030141726475696E6F9B
:1001B000204C4C430041726475696E6F204D696339
:1001C000726F0000E90A940A11241FBECFEFDAE033
:1001D000DEBFCDBF22E0ACE4B1E001C01D92AE397C
:1001E000B207E1F711E0A0E0B1E0E4E0F7E102C01E
:1001F00005900D92AC34B107D9F710E0C3EED0E012
:1002000004C02197FE010E946A0BC23ED107C9F7C4
:100210000E94BC070C94750B0C940000CF92DF92E7
:10022000EF92FF920F931F93CF93DF936C017A01AC
:100230008B01C0E0D0E0CE15DF0581F0D8016D91D3
:100240008D01D601ED91FC910190F081E02DC60168
:100250000995892B11F02196EECF7E01C701DF9120
:10026000CF911F910F91FF90EF90DF90CF90089565
:10027000CF93DF931F92CDB7DEB76983DC01ED9199
:10028000FC910280F381E02D41E050E0BE016F5F00
:100290007F4F09950F90DF91CF91089583E0809370
:1002A000E9008091F200882319F08AE38093E80046
:1002B0000895FC018485958597FD0BC09FB7F89440
:1002C00082E08093E9008091F2009FBF90E0019668
:1002D00008959FB7F89482E08093E9008091F2003E
:1002E0009FBF90E00895089580E090E0089590E029
:1002F000FC013197EF30F105B0F5EA5AFF4F0C944D
:100300006A0B809180008F7703C0809180008F7D81
:1003100080938000089580918000877FF9CF84B515
:100320008F7702C084B58F7D84BD08958091900041
:100330008F7707C0809190008F7D03C080919000DF
:10034000877F8093900008958091C0008F7703C0CD
:100350008091C0008F7D8093C00008958091C2007D
:10036000877F8093C2000895CF93DF93282F30E0DA
:10037000F901EE5CFE4F8491F901ED5EFE4FD491E0
:10038000F901EC50FF4FC491CC2391F081110E94F0
:100390007701EC2FF0E0EE0FFF1FEA51FF4FA59120
:1003A000B491EC91ED2381E090E021F480E002C073
:1003B00080E090E0DF91CF9108951F93CF93DF937A
:1003C000282F30E0F901EE5CFE4F8491F901ED5EDB
:1003D000FE4FD491F901EC50FF4FC491CC23C1F0F2
:1003E000162F81110E947701EC2FF0E0EE0FFF1F16
:1003F000E852FF4FA591B4919FB7F894111104C032
:100400008C91D095D82302C0EC91DE2BDC939FBF5A
:10041000DF91CF911F910895CF93DF9390E0FC017E
:10042000ED5EFE4F2491FC01EC50FF4F8491882338
:1004300061F190E0880F991FFC01E653FF4FC591D1
:10044000D491FC01E852FF4FA591B491611109C00C
:100450009FB7F8948881209582238883EC912E237E
:100460000BC0623061F49FB7F8948881322F3095C9
:1004700083238883EC912E2B2C939FBF06C08FB7CC
:10048000F894E8812E2B28838FBFDF91CF910895B8
:100490003FB7F8948091510190915201A09153017E
:1004A000B091540126B5A89B05C02F3F19F00196C5
:1004B000A11DB11D3FBFBA2FA92F982F8827820FEA
:1004C000911DA11DB11DBC01CD0142E0660F771F3A
:1004D000881F991F4A95D1F708958F929F92AF92E6
:1004E000BF92CF92DF92EF92FF926B017C010E944C
:1004F00048024B015C01C114D104E104F104F1F0A4
:100500000E944802DC01CB0188199909AA09BB099C
:10051000883E9340A105B10570F321E0C21AD108CD
:10052000E108F10888EE880E83E0981EA11CB11C3A
:10053000C114D104E104F10419F7DDCFFF90EF906D
:10054000DF90CF90BF90AF909F908F9008952FB77E
:10055000F89460914D0170914E0180914F019091FE
:1005600050012FBF08958F929F92AF92BF92CF926A
:10057000DF92EF92FF920F931F93CF93DF936C0163
:100580007B018A0180910B01882309F45CC0809172
:100590005D01882309F457C080915A0180FF05C08E
:1005A0008091E00082608093E000E801B12C8AEF46
:1005B000A82E93E0892E2AE3922E209711F4BB20D7
:1005C000D9F10E94FB0481110AC0AA94AA20D9F192
:1005D00061E070E080E090E00E946D02EECF282F95
:1005E00030E0C217D3070CF48C2F9FB7F894809299
:1005F000E9002091E80025FF1DC0282F30E0C21B34
:10060000D30BF701815020F041914093F100FACFD4
:10061000E20EF31EBB2019F09092E8000AC0809110
:10062000E80085FD07C09092E800BB24B3942097B2
:1006300009F0B12C9FBFC1CF5D9A84E680935B0126
:100640001016110644F081E090E0F6019383828356
:1006500080E090E001C0C801DF91CF911F910F9120
:10066000FF90EF90DF90CF90BF90AF909F908F90D2
:1006700008950E94FB0490E008950F931F93CF9379
:10068000DF931F92CDB7DEB78C01FC018485958581
:1006900097FF0EC0CE0101960E94BB04019719F48A
:1006A000898190E002C08FEF9FEFF80195878487E2
:1006B000F801848595850F90DF91CF911F910F915F
:1006C0000895CF93DF931F92CDB7DEB7FC018485E9
:1006D000958597FD05C02FEF3FEF358724870BC029
:1006E000CE0101960E94BB04019719F4898190E024
:1006F00002C08FEF9FEF0F90DF91CF91089540914F
:1007000057015091580120915501309156014217DF
:100710005307B4F49091E8009570E1F39091E800EC
:1007200092FD19C08093F10080915701909158017A
:1007300001968F739927892B19F48EEF8093E80027
:1007400080915701909158010196909358018093A0
:10075000570181E0089580E00895615030F02091C4
:10076000F100FC0120830196F8CF289A84E680935B
:100770005C0108951F920F920FB60F9211242F93D0
:100780003F938F939F93AF93BF9380914D0190912F
:100790004E01A0914F01B091500130914C0123E0E6
:1007A000230F2D3720F40196A11DB11D05C026E8A9
:1007B000230F0296A11DB11D20934C0180934D0182
:1007C00090934E01A0934F01B0935001809151013D
:1007D00090915201A0915301B09154010196A11D35
:1007E000B11D8093510190935201A0935301B09396
:1007F0005401BF91AF919F918F913F912F910F9095
:100800000FBE0F901F9018958091960281110DC018
:1008100082E08093920284E080939302109295028A
:100820001092940281E08093960282E992E008950A
:100830000E94700BDF92EF92FF920F931F93CF9362
:10084000DF93D82EF92EE42E062F10E0C801019672
:10085000880F0E947F0383E00E947F03CD2DDF2D50
:100860000C0F1D1FC017D10789F0E7FE03C0FE0162
:10087000849101C088810E947F03F82E80E00E944D
:100880007F038F2121968111EDCF01C081E0DF919F
:10089000CF911F910F91FF90EF90DF900895DF921D
:1008A000EF92FF920F931F93CF93DF93D82E8A017D
:1008B0007B01E40EF51EEB01CE15DF0571F0D7FECE
:1008C00003C0FE01849101C088810E947F032196AC
:1008D0008111F2CF8FEF9FEF01C0C801DF91CF915F
:1008E0001F910F91FF90EF90DF9008950F931F934A
:1008F000CF93DF931F92CDB7DEB782E0898342E4C6
:1009000050E061E571E080E80E944F040E94040419
:10091000DC0112960D911C9113970115110589F0B8
:10092000D801ED91FC910280F381E02DBE016F5F53
:100930007F4FC801099597FD04C0F8010085118516
:10094000ECCF89810F90DF91CF911F910F91089586
:1009500020918C0290E0211105C020918F023091EE
:10096000900204C020918D0230918E02F901E80FAF
:10097000F91F8081089520915D01211103C08FEF3F
:100980009FEF08955FB7F89422E02093E90020914B
:10099000F20030E01216130614F421E030E0422F8A
:1009A000FC0184E6415038F0289A80935C019091D4
:1009B000F1009193F7CF2115310521F08091F200DC
:1009C000882319F05FBFC90108958BE68093E80082
:1009D000F9CF009769F0FC0101900020E9F7319709
:1009E000AF01481B590BBC018EE591E00C94B3029A
:1009F00080E090E008952FB7F89483E08093E900B9
:100A00009091E800892F807295FF04C09091F200C8
:100A100080E4891B2FBF08951F920F920FB60F928B
:100A200011248F939F938091E1009091E100937F37
:100A30009093E10083FF0FC01092E90091E0909342
:100A4000EB001092EC0092E39093ED0010925D01A8
:100A500098E09093F00082FF20C093E09093E9002B
:100A60009091F200992319F09AE39093E800909105
:100A70005B01992339F090915B01915090935B0158
:100A8000992389F190915C01992339F090915C014F
:100A9000915090935C01992341F184FF10C08091A3
:100AA000E2008E7E81608093E2008091E1008F7E83
:100AB0008093E10080915A018E7E806111C080FF99
:100AC00016C08091E2008E7E80618093E20080916A
:100AD000E1008E7E8093E10080915A018E7E8160DC
:100AE00080935A0104C05D98CDCF2898D6CF9F91AE
:100AF0008F910F900FBE0F901F9018951F920F921D
:100B00000FB60F921124CF92DF92EF92FF920F93C4
:100B10001F932F933F934F935F936F937F938F9385
:100B20009F93AF93BF93EF93FF93CF93DF93CDB793
:100B3000DEB76C97DEBFCDBF1092E9008091E80070
:100B400083FFFBC168E0CE0145960E94AD0382EFB2
:100B50008093E8008D8987FF05C09091E80090FFA1
:100B6000FCCF03C09EEF9093E800982F907609F099
:100B7000C6C09E894F89588D2F89F88C91110CC061
:100B8000803829F4809159018093F10002C01092BD
:100B9000F1001092F10045C1913051F4811141C131
:100BA0004130510509F03DC1809159018D7F0BC045
:100BB000933061F4811135C14130510509F031C1E3
:100BC000809159018260809359012BC1953049F47D
:100BD0008091E80080FFFCCF822F80688093E30043
:100BE00020C1963009F05EC00B8D1C8D22E0109262
:100BF000E9001092580110925701F21232C010927F
:100C00005601109255010E94760499E0BE016F5F73
:100C10007F4FDB01E92F1D92EA95E9F79983FA826C
:100C200091E09E8390EA98879AEF998720915701E7
:100C300030915801275F3F4F3C832B838D83109267
:100C4000E900109258011092570110935601009339
:100C5000550149E050E080E00E944F040E94760474
:100C6000E0C010935601009355010E940404DC017A
:100C700012960D911C9113970115110509F4BBC033
:100C8000D801ED91FC910480F581E02DBE016B5EF1
:100C90007F4FC8010995009709F0C7C0F80100858A
:100CA0001185EACF973009F445C1983021F481E0ED
:100CB0008093F100B6C0993009F0B3C0837009F099
:100CC00039C1EDE0F1E081E031E096E320812111CE
:100CD00009C08EE78093EA001092EA008F89809322
:100CE0005D019FC08093E9003093EB002191209338
:100CF000EC009093ED008F5F873041F7EACF8B8D4A
:100D00009C8D1092E9001092580110925701909317
:100D1000560180935501898D811153C08E899D891B
:100D2000913A49F4813209F005C147E050E064E0AE
:100D300071E080E0BBC0913209F0FCC0833269F4FD
:100D40008F89988DA0E0B0E080930001909301011D
:100D5000A0930201B093030164C0803269F48091D2
:100D6000E80082FFFCCF67E084E091E00E94AD03E1
:100D70008BEF8093E80055C0823209F052C08F8912
:100D800080930B01EEEFFFE7859194918B3F9C4D93
:100D900019F0E0E0F8E002C0EEEFFAE08091040123
:100DA00090910501A0910601B0910701803B94400C
:100DB000A105B10509F09EC080910B0180FF79C0AB
:100DC00099C00E940404FC010281138101151105E0
:100DD00009F4B0C0D801ED91FC910190F081E02DB3
:100DE000BE016B5E7F4FC801099581111AC0F801E1
:100DF00000851185EBCFF1E0FF1609F44EC0F3E05A
:100E0000FF1298C08F89882309F44AC0823089F480
:100E100040E86DE085EB91E00E941A04882309F414
:100E200089C08EEF8093E80088C018161906CCF3AD
:100E300081C0813029F440E86BE089EA91E0ECCF91
:100E4000833009F077C00E940404DC011296ED9013
:100E5000FC9013978E010F5F1F4F6801E114F1049E
:100E600079F0D701ED91FC910680F781E02DB80172
:100E7000C7010995080F111DF701E084F184EECF39
:100E8000D8011C92F60101900020E9F73197BF01CB
:100E90006C197D0940E0C601BFCF67E971E002C06F
:100EA00063E971E0FB01449150E080E80E944F0447
:100EB000B8CFEE3F2AE0F20751F080819181873769
:100EC000A7E79A0721F09093FF0A8093FE0A87E72D
:100ED00097E79183808380916000809391029BE0EB
:100EE00088E10FB6F894A895809360000FBE9093A8
:100EF000600097CF808191818737974709F091CF24
:100F0000A895809160008861809360008091910233
:100F100080936000EE3FBAE0FB0739F08091FE0A53
:100F20009091FF0A918380837CCF1092FF0A1092E8
:100F3000FE0A77CF81E28093EB006C960FB6F894AF
:100F4000DEBF0FBECDBFDF91CF91FF91EF91BF917B
:100F5000AF919F918F917F916F915F914F913F9151
:100F60002F911F910F91FF90EF90DF90CF900F90F6
:100F70000FBE0F901F901895CF93DF93CDB7DEB7BC
:100F8000A1970FB6F894DEBF0FBECDBF789484B59D
:100F9000826084BD84B5816084BD85B5826085BD75
:100FA00085B5816085BD80916E00816080936E0003
:100FB00010928100809181008260809381008091F5
:100FC00081008160809381008091800081608093A6
:100FD00080008091910082608093910080919100C7
:100FE0008160809391008091900081608093900057
:100FF0008091C10084608093C1008091C1008260B3
:101000008093C1008091C10081608093C100809174
:10101000C30081608093C3008091C0008260809390
:10102000C0008091C20081608093C20080917A00EC
:10103000846080937A0080917A00826080937A0045
:1010400080917A00816080937A0080917A00806834
:1010500080937A0010925D011092590110925A010A
:101060008091D70081608093D70080EA8093D80078
:1010700089B5806189BD89B5826089BD09B400FEEA
:10108000FDCF61E070E080E090E00E946D02809111
:10109000D8008F7C80618093D8008091E000807FB1
:1010A0008093E0008091E1008E7E8093E1008DE0EE
:1010B0008093E200559A209A5D9828981092F0014A
:1010C0001092F1011092F2011092F3011092B0010E
:1010D0001092B1011092B2011092B3010E94A702C6
:1010E0006B017C014B015C0188EB880E8BE0981E44
:1010F000A11CB11C0E94A7026C157D058E059F05E1
:1011000028F086169706A806B906A0F760ED77E0E6
:1011100080E090E00E946D028FEF9FEF90936B0153
:1011200080936A010E94A7026093B0017093B1019D
:101130008093B2019093B30187E391E00E94E904A8
:101140000E94A7026B017C014B015C018AE0880EC2
:10115000911CA11CB11C0E94A7026C157D058E0577
:101160009F0528F086169706A806B906A0F781E025
:101170008093C4018FEF9FEF90936B0180936A017E
:1011800010E080918C02811102C08CE001C086E0E9
:10119000181710F010E01BC0812F0E94A80461E016
:1011A0000E940C02812F0E94A80461E00E94DD01D0
:1011B0001F5FE7CF1C30B0F4E0918F02F0919002F6
:1011C000E10FF11D808162E00E940C021F5F80919F
:1011D0008C028111EFCF163028F4E0918D02F0914E
:1011E0008E02EECF10E08CE0F82EEE24E394809196
:1011F0008C02811102C08CE001C086E0181760F4F7
:10120000812F0E94A80460E00E94DD0100E080912F
:101210008C02811181C088C00E94A7026093F801EE
:101220007093F9018093FA019093FB017CE0D72E33
:10123000CC24C394E0E0EE2EE0E0FE2E0E94A70254
:101240000091F8011091F9012091FA013091FB0110
:10125000DC01CB01801B910BA20BB30B0091F401BD
:101260001091F5012091F6013091F7018017910757
:10127000A207B30700F100E080918C02811102C047
:101280008CE001C086E0081760F4802F0E94A8045B
:1012900060E00E94DD0110E080918C028111C0C0ED
:1012A000C7C00E94A7026093F8017093F901809370
:1012B000FA019093FB0194EF892E91E0992E26E09C
:1012C000B22E00E010E0F401E00FF11F808519A2BA
:1012D000805D88A3CE0180960E94E90489E491E0B4
:1012E0000E94E9040E5F1F4F0831110561F786E483
:1012F00091E00E94E904BA9488E1880E911CB11033
:10130000E0CF86E491E00E94E904E114F10409F4DD
:1013100095CF0E94000092CF0C3008F079C0E09188
:101320008F02F091900207C0063008F071C0E09182
:101330008D02F0918E02E00FF11D80810E94B401B8
:1013400041E0892B09F040E080918C0290E0009709
:1013500011F0212F01C0202F30E0009711F0502F05
:1013600001C0512FF29EF001F39EF00D1124E50F04
:10137000F11DEE0FFF1FE450FE4F2081421779F15F
:10138000009711F0212F01C0202F30E0009711F0BD
:10139000502F01C0512FF29EF001F39EF00D112449
:1013A000E50FF11DEE0FFF1FE450FE4F4083009745
:1013B00011F0212F01C0202F30E0892B11F0802F58
:1013C00001C0812FF29EF001F39EF00D1124E80F71
:1013D000F11DEE0FFF1FEC50FE4FE18617C0009786
:1013E00011F0212F01C0202F30E0892B11F0802F28
:1013F00001C0812FF29EF001F39EF00D1124E80F41
:10140000F11DEE0FFF1FEC50FE4F11860F5FFFCE58
:10141000812F0E94A80461E00E94DD011F5FE7CEDA
:101420001C3008F079C0E0918F02F091900207C063
:10143000163008F071C0E0918D02F0918E02E10F3C
:10144000F11D80810E94B40121E0892B09F020E088
:1014500080918C0290E0009711F0402F01C0412F45
:1014600050E0009711F0312F01C0302FD49EF001D1
:10147000D59EF00D1124E30FF11DEE0FFF1FE45078
:10148000FE4F3081231779F1009711F0402F01C0F2
:10149000412F50E0009711F0312F01C0302FD49E22
:1014A000F001D59EF00D1124E30FF11DEE0FFF1F8B
:1014B000E450FE4F2083009711F0202F01C0212F10
:1014C00030E0892B11F0812F01C0802FD29EF001D6
:1014D000D39EF00D1124E80FF11DEE0FFF1FEC500D
:1014E000FE4FC18617C0009711F0202F01C0212F99
:1014F00030E0892B11F0812F01C0802FD29EF001A6
:10150000D39EF00D1124E80FF11DEE0FFF1FEC50DC
:10151000FE4F11861F5FC0CE802F0E94A80461E09D
:101520000E94DD010F5FA8CECF931092F8011092B8
:10153000F9011092FA011092FB011092F40110923D
:10154000F5011092F6011092F701C0E080918C0233
:10155000882339F0CC3098F4E0918F02F09190021A
:1015600006C0C63060F4E0918D02F0918E02EC0F5F
:10157000F11D808160E00E940C02CF5FE7CFC0E0E8
:1015800080918C02811102C08CE001C086E0C817F6
:1015900070F48C2F0E94A80460E00E94DD018C2F63
:1015A0000E94A80460E00E940C02CF5FE9CF24EF04
:1015B00031E086E0F9019CE0108611869150329668
:1015C0009111FACF8150285E3F4F8111F3CFCF9117
:1015D0000895109261011092600188EE93E0A0E0FE
:1015E000B0E08093620190936301A0936401B09393
:1015F000650187E191E090935F0180935E018FEF39
:101600009FEF90936B0180936A011092B401109246
:10161000B5011092B6011092B7011092B801109264
:10162000B9011092BA011092BB011092BC01109244
:10163000BD011092BE011092BF011092C001109224
:10164000C1011092C2011092C30180E090E0FC0140
:10165000E450FE4F9C012C5E3D4F10821182329669
:101660002E173F07D1F748968039910581F781E31E
:1016700091E090938E0280938D0285E291E09093A9
:10168000900280938F028AE090E0A0E0B0E0809327
:10169000F4019093F501A093F601B093F701109235
:1016A000F8011092F9011092FA011092FB011092C8
:1016B0008C0224EF31E086E0F9019CE0108611866F
:1016C000915032969111FACF8150285E3F4F81118F
:1016D000F3CF0895EE0FFF1F0590F491E02D0994CC
:1016E00081E090E0F8940C94750B10E0C3EED0E02C
:1016F00004C0FE010E946A0B2196C43ED107C9F7BF
:04170000F894FFCF8B
:10170400FFFFFFFF00E100000000000000C1808136
:10171400000000000000003801B30239034E0159F3
:101724000161033D030D0C0B0A09080706050403B8
:1017340002121314151617564D4450565F317C315E
:0C1744005F564D4450560D0A002C00006A
:00000001FF
