:100000000C9463000C948B000C948B000C948B006C
:100010000C948B000C948B000C948B000C948B0034
:100020000C948B000C948B000C948B000C948B0024
:100030000C948B000C948B000C948B000C948B0014
:100040000C9436030C948B000C9404030C94DE0285
:100050000C948B000C948B000C948B000C948B00F4
:100060000C948B000C948B000000000024002700EF
:100070002A0000000000250028002B0000000000DE
:1000800023002600290004040404040404040202DA
:100090000202020203030303030301020408102007
:1000A0004080010204081020010204081020000012
:1000B0000008000201000003040700000000000027
:1000C00000008003E20511241FBECFEFD8E0DEBFA1
:1000D000CDBF22E0A4E2B1E001C01D92AC33B20773
:1000E000E1F711E0A0E0B1E0E0ECFCE002C0059037
:1000F0000D92A432B107D9F710E0C2E6D0E004C0F7
:100100002197FE010E944806C136D107C9F70E9417
:1001100023040C9453060C940000CF92DF92EF92CC
:10012000FF920F931F932FB7F894C0902901D0909E
:100130002A01E0902B01F0902C012FBFDC01CB01B4
:100140008C0D9D1DAE1DBF1D4FB7F8940091290168
:1001500010912A0120912B0130912C014FBF0C15D9
:100160001D052E053F0528F080179107A207B3074C
:1001700058F71F910F91FF90EF90DF90CF90089567
:10018000CF92DF92EF92FF920F931F93CF93DF9363
:100190006C017A018B01C0E0D0E0CE15DF0581F063
:1001A000D8016D918D01D601ED91FC910190F08106
:1001B000E02DC6010995892B11F02196EECF7E0125
:1001C000C701DF91CF911F910F91FF90EF90DF90CA
:1001D000CF900895089580E090E00895FC01538D3C
:1001E000448D252F30E0842F90E0821B930B541711
:1001F00010F0CF96089501970895FC01918D828D9E
:10020000981761F0828DDF01A80FB11D5D968C916A
:10021000928D9F5F9F73928F90E008958FEF9FEF75
:100220000895FC01918D828D981731F0828DE80F31
:10023000F11D858D90E008958FEF9FEF0895FC01EB
:10024000918D228D892F90E0805C9F4F821B9109B8
:100250008F73992708958DE291E00E941F0121E09C
:10026000892B09F420E0822F0895FC01848DDF01A1
:10027000A80FB11DA35ABF4F2C91848D90E0019619
:100280008F739927848FA689B7892C93A089B18908
:100290008C91837080648C93938D848D981306C0A9
:1002A0000288F389E02D80818F7D80830895EF920D
:1002B000FF920F931F93CF93DF93EC0181E0888F20
:1002C0009B8D8C8D981305C0E889F989808185FD07
:1002D00026C0F62E0B8D10E00F5F1F4F0F731127F6
:1002E000E02E8C8DE8120CC00FB607FCFACFE8891F
:1002F000F989808185FFF5CFCE010E943501F1CFCC
:100300008B8DFE01E80FF11DE35AFF4FF0829FB77E
:10031000F8940B8FEA89FB89808180620AC09FB7BD
:10032000F894EE89FF896083E889F9898081837078
:10033000806480839FBF81E090E0DF91CF911F9127
:100340000F91FF90EF900895CF93DF93EC01888D8C
:100350008823C9F0EA89FB89808185FD05C0A889C9
:10036000B9898C9186FD0FC00FB607FCF5CF80814F
:1003700085FFF2CFA889B9898C9185FFEDCFCE0199
:100380000E943501E7CFDF91CF91089580E090E0A2
:10039000892B29F00E942B0181110C9400000895F3
:1003A000833081F028F4813099F08230A1F00895F3
:1003B0008730A9F08830B9F08430D1F48091800082
:1003C0008F7D03C0809180008F7780938000089597
:1003D00084B58F7702C084B58F7D84BD08958091E8
:1003E000B0008F7703C08091B0008F7D8093B00004
:1003F00008951F93CF93DF93282F30E0F901E25542
:10040000FF4F8491F901E656FF4FD491F901EA5765
:10041000FF4FC491CC23C1F0162F81110E94D0014F
:10042000EC2FF0E0EE0FFF1FEE58FF4FA591B491B7
:100430009FB7F894111104C08C91D095D82302C0B5
:10044000EC91DE2BDC939FBFDF91CF911F9108953C
:10045000CF93DF9390E0FC01E656FF4F2491FC011F
:10046000EA57FF4F8491882361F190E0880F991F2C
:10047000FC01E859FF4FC591D491FC01EE58FF4FA4
:10048000A591B491611109C09FB7F8948881209516
:1004900082238883EC912E230BC0623061F49FB7D6
:1004A000F8948881322F309583238883EC912E2B0A
:1004B0002C939FBF06C08FB7F894E8812E2B28831A
:1004C0008FBFDF91CF9108953FB7F89480912501B8
:1004D00090912601A0912701B091280126B5A89BF3
:1004E00005C02F3F19F00196A11DB11D3FBFBA2FC6
:1004F000A92F982F8827820F911DA11DB11DBC0126
:10050000CD0142E0660F771F881F991F4A95D1F7EA
:100510000895009769F0FC0101900020E9F73197F8
:10052000AF01481B590BBC018DE291E00C94C00057
:1005300080E090E008958F929F92AF92BF920F93C8
:100540001F93CF93DF93CDB7DEB7A1970FB6F89483
:10055000DEBF0FBECDBF19A2423008F44AE08E01C3
:100560000F5D1F4F842E912CA12CB12CA50194015D
:100570000E942606E62FB901CA0101501109EA308E
:1005800014F4E05D01C0E95CD801EC93232B242B2B
:10059000252B61F7C8010E948902A1960FB6F89435
:1005A000DEBF0FBECDBFDF91CF911F910F91BF90E6
:1005B000AF909F908F9008950E944E061F920F92C9
:1005C0000FB60F9211242F933F934F935F936F9326
:1005D0007F938F939F93AF93BF93EF93FF938DE29E
:1005E00091E00E943501FF91EF91BF91AF919F91F2
:1005F0008F917F916F915F914F913F912F910F90CC
:100600000FBE0F901F9018951F920F920FB60F926A
:1006100011242F938F939F93EF93FF93E0913D01CC
:10062000F0913E018081E0914301F091440182FD0F
:1006300012C09081809146018F5F8F732091470196
:10064000821751F0E0914601F0E0E35DFE4F958F97
:100650008093460101C08081FF91EF919F918F911E
:100660002F910F900FBE0F901F9018951F920F9211
:100670000FB60F9211242F933F938F939F93AF93B5
:10068000BF938091290190912A01A0912B01B091F3
:100690002C013091240123E0230F2D3720F4019603
:1006A000A11DB11D05C026E8230F0296A11DB11D95
:1006B000209324018093290190932A01A0932B0178
:1006C000B0932C018091250190912601A0912701E2
:1006D000B09128010196A11DB11D80932501909331
:1006E0002601A0932701B0932801BF91AF919F915C
:1006F0008F913F912F910F900FBE0F901F901895E3
:10070000CF93DF93CDB7DEB728970FB6F894DEBF4F
:100710000FBECDBF1092300110922F0188EE93E0F2
:10072000A0E0B0E08093310190933201A0933301B7
:10073000B093340184E091E090932E0180932D01D9
:1007400085EC90E090933A018093390184EC90E03D
:1007500090933C0180933B0180EC90E090933E01AC
:1007600080933D0181EC90E09093400180933F01A4
:1007700082EC90E0909342018093410186EC90E0FE
:1007800090934401809343011092460110924701D7
:1007900010924801109249011092D0011092D1019B
:1007A0001092D2011092D3011092D4011092D5016F
:1007B0001092D6011092D7011092D8011092D9014F
:1007C0001092DA011092DB011092DC011092DD012F
:1007D0001092DE011092DF01CE010596909339024E
:1007E00080933802049790933B0280933A028AE008
:1007F00090E0A0E0B0E08093100290931102A093EB
:100800001202B0931302E0E1F2E010861186128624
:1008100013861486158616861786389682E0E0338E
:10082000F80799F71092140210921502109216020E
:100830001092170228960FB6F894DEBF0FBECDBFF8
:10084000DF91CF910895789484B5826084BD84B59A
:10085000816084BD85B5826085BD85B5816085BDBB
:1008600080916E00816080936E0010928100809173
:1008700081008260809381008091810081608093FB
:100880008100809180008160809380008091B10020
:1008900084608093B1008091B00081608093B0004B
:1008A00080917A00846080937A0080917A008260DF
:1008B00080937A0080917A00816080937A008091A1
:1008C0007A00806880937A001092C10010920C0226
:1008D00010920D0210920E0210920F021092CC0193
:1008E0001092CD011092CE011092CF0168EB7BE007
:1008F00080E090E00E948D000E9464024B015C0148
:1009000020EDC22E27E0D22EE12CF12C0E946402B1
:10091000DC01CB0188199909AA09BB09883E9340DB
:10092000A105B10598F321E0C21AD108E108F10848
:1009300088EE880E83E0981EA11CB11CC114D1045E
:10094000E104F10419F7E0913D01F0913E01D2E09C
:10095000D083E0913901F0913A011082E0913B019E
:10096000F0913C0180E1808310924501E0914101CA
:10097000F0914201C6E0C083E0913F01F091400157
:10098000808180618083E0913F01F091400180810E
:1009900088608083E0913F01F09140018081806810
:1009A0008083E0913F01F091400180818F7D8083C1
:1009B0002FB7F8948091290190912A01A0912B01E1
:1009C000B0912C012FBF8093CC019093CD01A093C7
:1009D000CE01B093CF0182E191E00E9489026AE0EA
:1009E00070E080E090E00E948D0081E08093E00163
:1009F000E0913D01F0913E01D083E0913901F09109
:100A00003A011082E0913B01F0913C018FEC808330
:100A100010924501E0914101F0914201C083E091C3
:100A20003F01F0914001808180618083E0913F012E
:100A3000F0914001808188608083E0913F01F091D6
:100A40004001808180688083E0913F01F091400106
:100A500080818F7D8083C0E0D0E0E0913802F0910A
:100A60003902EC0FFD1F61E080810E94280221966F
:100A7000C430D10591F7C0E0D0E0E0913A02F091A6
:100A80003B02EC0FFD1F62E080810E94280221964C
:100A9000C430D10591F790E1C92E92E0D92E00E043
:100AA00010E0AA24A394E0913802F0913902E00FFB
:100AB000F11F60E080810E94F901E601E12CF12C38
:100AC000E0913A02F0913B02EE0DFF1D208130E0F3
:100AD000F901E255FF4F8491F901E656FF4FB490BA
:100AE000F901EA57FF4F94909920A1F081110E94DB
:100AF000D001E92DF0E0EE0FFF1FE458FF4FA59164
:100B0000B491EC91BE2231E020E009F430E0832F73
:100B1000922F02C080E090E021E0822781709885CA
:100B2000891719F08887A98601C019868FEFE81AFE
:100B3000F80A229624E0E216F10409F0C1CFE09110
:100B40003802F0913902E00FF11F61E080810E94CC
:100B5000F9010F5F1F4F88E0C80ED11C043011054A
:100B600009F0A1CF2FB7F8948091290190912A0123
:100B7000A0912B01B0912C012FBF80931402909370
:100B80001502A0931602B09317024AE063E070E0EA
:100B900080E090E00E949B0281E291E00E94890245
:100BA000E0913802F0913902628170E080E090E0DB
:100BB0004AE00E949B0281E291E00E9489020E9429
:100BC000C601E3CFCF93DF93109214021092150267
:100BD0001092160210921702109210021092110237
:100BE0001092120210921302C0E0D0E0E0913A029B
:100BF000F0913B02EC0FFD1F61E080810E94280212
:100C00002196C430D10591F7C0E0D0E0E0913802E0
:100C1000F0913902EC0FFD1F60E080810E94F90124
:100C20002196C430D10591F7E0E1F2E010861186FB
:100C3000128613861486158616861786389682E0E5
:100C4000E033F80799F7DF91CF910895A1E21A2ECA
:100C5000AA1BBB1BFD010DC0AA1FBB1FEE1FFF1F60
:100C6000A217B307E407F50720F0A21BB30BE40BB0
:100C7000F50B661F771F881F991F1A9469F76095F7
:100C80007095809590959B01AC01BD01CF010895B1
:100C9000EE0FFF1F0590F491E02D099481E090E0A4
:100CA000F8940C94530610E0C2E6D0E004C0FE01B4
:100CB0000E9448062196C336D107C9F7F894FFCFA2
:100CC000000000005701C000EE00A4011F01FD005C
:100CD0001101564D4450565F317C315F564D4450A2
:040CE000560D0A00A3
:107E0000112484B714BE81FFF0D085E080938100F7
:107E100082E08093C00088E18093C10086E0809377
:107E2000C20080E18093C4008EE0C9D0259A86E02C
:107E300020E33CEF91E0309385002093840096BBD3
:107E4000B09BFECF1D9AA8958150A9F7CC24DD24C4
:107E500088248394B5E0AB2EA1E19A2EF3E0BF2EE7
:107E6000A2D0813461F49FD0082FAFD0023811F036
:107E7000013811F484E001C083E08DD089C08234E0
:107E800011F484E103C0853419F485E0A6D080C0E4
:107E9000853579F488D0E82EFF2485D0082F10E0AE
:107EA000102F00270E291F29000F111F8ED06801E7
:107EB0006FC0863521F484E090D080E0DECF843638
:107EC00009F040C070D06FD0082F6DD080E0C81688
:107ED00080E7D80618F4F601B7BEE895C0E0D1E017
:107EE00062D089930C17E1F7F0E0CF16F0E7DF06D8
:107EF00018F0F601B7BEE89568D007B600FCFDCFD4
:107F0000A601A0E0B1E02C9130E011968C91119780
:107F100090E0982F8827822B932B1296FA010C0160
:107F200087BEE89511244E5F5F4FF1E0A038BF0790
:107F300051F7F601A7BEE89507B600FCFDCF97BE46
:107F4000E89526C08437B1F42ED02DD0F82E2BD052
:107F50003CD0F601EF2C8F010F5F1F4F84911BD097
:107F6000EA94F801C1F70894C11CD11CFA94CF0C13
:107F7000D11C0EC0853739F428D08EE10CD085E9AC
:107F80000AD08FE07ACF813511F488E018D01DD067
:107F900080E101D065CF982F8091C00085FFFCCF94
:107FA0009093C60008958091C00087FFFCCF809118
:107FB000C00084FD01C0A8958091C6000895E0E648
:107FC000F0E098E1908380830895EDDF803219F02E
:107FD00088E0F5DFFFCF84E1DECF1F93182FE3DFCA
:107FE0001150E9F7F2DF1F91089580E0E8DFEE27F6
:047FF000FF270994CA
:027FFE00040479
:0400000300007E007B
:00000001FF