:100000000C94E4000C940C010C940C010C940C0165
:100010000C940C010C940C010C940C010C940C012C
:100020000C940C010C940C010C94AF040C9421055D
:100030000C940C010C940C010C940C010C940C010C
:100040000C940C010C940C010C940C010C940C01FC
:100050000C940C010C940C010C940C010C945F0793
:100060000C940C010C940C010C940C010C940C01DC
:100070000C940C010C940C010C940C010C940C01CC
:100080000C940C010C940C010C940C010C940C01BC
:100090000C940C010C940C010C940C010C940C01AC
:1000A0000C940C010C940C010C940C01F102F40260
:1000B000E302E702ED02150315031503F802FC0243
:1000C000000306030A0315031003000000002400C8
:1000D00027002A002D003000000000002500280025
:1000E0002B002E0031000000000023002600290014
:1000F0002C002F000404040404030405020202027D
:1001000004030202020206060606060604040202B0
:100110000204040408020110408040102040804086
:10012000800802040180402010020110801020404D
:1001300040200000000200090F0000030401000C31
:1001400000000000000000000000000000000000AF
:1001500000080B0002020201000904000001020273
:1001600000000524001001052401010104240206F9
:100170000524060001070581031000400904010061
:10018000020A000000070502024000000705830282
:100190004000000403090412010002EF0201404183
:1001A00023378000010102030141726475696E6F9B
:1001B000204C4C430041726475696E6F204D696339
:1001C000726F0000A907390A11241FBECFEFDAE0D1
:1001D000DEBFCDBF22E0A2E4B1E001C01D92A33298
:1001E000B207E1F711E0A0E0B1E0EAE2F5E102C018
:1001F00005900D92A234B107D9F710E0C3EED0E01C
:1002000004C02197FE010E947D0AC23ED107C9F7B2
:100210000E941A080C94880A0C9400002091600136
:10022000211103C08FEF9FEF08955FB7F89422E08C
:100230002093E9002091F20030E01216130614F426
:1002400021E030E0422FFC0184E6415038F0289A4A
:1002500080935F019091F1009193F7CF21153105C3
:1002600021F08091F200882319F05FBFC901089541
:100270008BE68093E800F9CF2FB7F89483E0809362
:10028000E9009091E800892F807295FF04C0909159
:10029000F20080E4891B2FBF0895809157018111DE
:1002A0000DC082E08093530184E08093540110924A
:1002B00056011092550181E08093570183E591E04A
:1002C000089540914D0150914E0120914B01309184
:1002D0004C0142175307B4F49091E8009570E1F394
:1002E0009091E80092FD19C08093F10080914D013A
:1002F00090914E0101968F739927892B19F48EEFF7
:100300008093E80080914D0190914E010196909369
:100310004E0180934D0181E0089580E00895DF92C1
:10032000EF92FF920F931F93CF93DF93D82EF92E66
:10033000E42E062F10E0C8010196880F0E9461018B
:1003400083E00E946101CD2DDF2D0C0F1D1FC01712
:10035000D10789F0E7FE03C0FE01849101C08881C6
:100360000E946101F82E80E00E9461018F21219698
:100370008111EDCF01C081E0DF91CF911F910F91ED
:10038000FF90EF90DF900895DF92EF92FF920F932E
:100390001F93CF93DF93D82E8A017B01E40EF51EC5
:1003A000EB01CE15DF0571F0D7FE03C0FE0184918D
:1003B00001C088810E94610121968111F2CF8FEFE7
:1003C0009FEF01C0C801DF91CF911F910F91FF9066
:1003D000EF90DF9008950F931F93CF93DF931F92B9
:1003E000CDB7DEB782E0898342E450E061E571E099
:1003F00080E80E94C4010E944D01DC0112960D911B
:100400001C9113970115110589F0D801ED91FC910C
:100410000280F381E02DBE016F5F7F4FC801099517
:1004200097FD04C0F80100851185ECCF89810F90FC
:10043000DF91CF911F910F910895615030F020917D
:10044000F100FC0120830196F8CF289A84E680937E
:100450005F010895CF92DF92EF92FF920F931F9367
:10046000CF93DF936C017A018B01C0E0D0E0CE1511
:10047000DF0581F0D8016D918D01D601ED91FC91E0
:100480000190F081E02DC6010995892B11F021968C
:10049000EECF7E01C701DF91CF911F910F91FF90A9
:1004A000EF90DF90CF900895CF93DF931F92CDB759
:1004B000DEB76983DC01ED91FC910280F381E02DD0
:1004C00041E050E0BE016F5F7F4F09950F90DF91D3
:1004D000CF91089583E08093E9008091F200882312
:1004E00019F08AE38093E80008950E943C0190E0AF
:1004F0000895CF93DF931F92CDB7DEB7FC018485BB
:10050000958597FD05C02FEF3FEF358724870BC0FA
:10051000CE0101960E940E01019719F4898190E0A5
:1005200002C08FEF9FEF0F90DF91CF9108950F934F
:100530001F93CF93DF931F92CDB7DEB78C01FC01E1
:100540008485958597FF0EC0CE0101960E940E010D
:10055000019719F4898190E002C08FEF9FEFF801B5
:1005600095878487F801848595850F90DF91CF91D9
:100570001F910F910895FC018485958597FD0BC00F
:100580009FB7F89482E08093E9008091F2009FBFCA
:1005900090E0019608959FB7F89482E08093E90077
:1005A0008091F2009FBF90E00895089580E090E070
:1005B000089590E0FC013197EF30F105B0F5EA5A6B
:1005C000FF4F0C947D0A809180008F7703C080914B
:1005D00080008F7D80938000089580918000877FC8
:1005E000F9CF84B58F7702C084B58F7D84BD08951F
:1005F000809190008F7707C0809190008F7D03C01D
:1006000080919000877F8093900008958091C00032
:100610008F7703C08091C0008F7D8093C0000895C4
:100620008091C200877F8093C2000895CF93DF93AB
:10063000282F30E0F901EE5CFE4F8491F901ED5E68
:10064000FE4FD491F901EC50FF4FC491CC2391F0AF
:1006500081110E94D902EC2FF0E0EE0FFF1FEA514A
:10066000FF4FA591B491EC91ED2381E090E021F44E
:1006700080E002C080E090E0DF91CF9108951F9369
:10068000CF93DF93282F30E0F901EE5CFE4F849189
:10069000F901ED5EFE4FD491F901EC50FF4FC4918A
:1006A000CC23C1F0162F81110E94D902EC2FF0E06B
:1006B000EE0FFF1FE852FF4FA591B4919FB7F8943A
:1006C000111104C08C91D095D82302C0EC91DE2B7F
:1006D000DC939FBFDF91CF911F910895CF93DF935C
:1006E00090E0FC01ED5EFE4F2491FC01EC50FF4FC9
:1006F0008491882361F190E0880F991FFC01E653F3
:10070000FF4FC591D491FC01E852FF4FA591B491E0
:10071000611109C09FB7F89488812095822388834E
:10072000EC912E230BC0623061F49FB7F89488815E
:10073000322F309583238883EC912E2B2C939FBFEF
:1007400006C08FB7F894E8812E2B28838FBFDF91E6
:10075000CF9108953FB7F894809147019091480157
:10076000A0914901B0914A0126B5A89B05C02F3F31
:1007700019F00196A11DB11D3FBFBA2FA92F982FC7
:100780008827820F911DA11DB11DBC01CD0142E042
:10079000660F771F881F991F4A95D1F708958F928A
:1007A0009F92AF92BF92CF92DF92EF92FF926B0136
:1007B0007C010E94AA034B015C01C114D104E10435
:1007C000F104F1F00E94AA03DC01CB018819990918
:1007D000AA09BB09883E9340A105B10570F321E049
:1007E000C21AD108E108F10888EE880E83E0981E4D
:1007F000A11CB11CC114D104E104F10419F7DDCF2F
:10080000FF90EF90DF90CF90BF90AF909F908F9030
:1008100008958F929F92AF92BF92CF92DF92EF9204
:10082000FF920F931F93CF93DF936C017B018A019B
:1008300080910B01882309F45CC0809160018823BA
:1008400009F457C08091510180FF05C08091E000FC
:1008500082608093E000E801B12C8AEFA82E93E03B
:10086000892E2AE3922E209711F4BB20D9F10E9401
:100870003C0181110AC0AA94AA20D9F161E070E07C
:1008800080E090E00E94CF03EECF282F30E0C21727
:10089000D3070CF48C2F9FB7F8948092E900209135
:1008A000E80025FF1DC0282F30E0C21BD30BF70145
:1008B000815020F041914093F100FACFE20EF31EF7
:1008C000BB2019F09092E8000AC08091E80085FDF5
:1008D00007C09092E800BB24B394209709F0B12C94
:1008E0009FBFC1CF5D9A84E6809352011016110616
:1008F00044F081E090E0F6019383828380E090E011
:1009000001C0C801DF91CF911F910F91FF90EF902F
:10091000DF90CF90BF90AF909F908F9008952FB7AA
:10092000F894609143017091440180914501909148
:1009300046012FBF0895009769F0FC010190002047
:10094000E9F73197AF01481B590BBC0181E691E0F3
:100950000C94090480E090E008950E94830A1F929D
:100960000F920FB60F9211248F939F938091E10005
:100970009091E100937F9093E10083FF0FC010926C
:10098000E90091E09093EB001092EC0092E39093D9
:10099000ED001092600198E09093F00082FF20C07B
:1009A00093E09093E9009091F200992319F09AE373
:1009B0009093E80090915201992339F0909152015F
:1009C000915090935201992389F190915F0199235D
:1009D00039F090915F01915090935F01992341F11B
:1009E00084FF10C08091E2008E7E81608093E200DF
:1009F0008091E1008F7E8093E100809151018E7E95
:100A0000806111C080FF16C08091E2008E7E8061FF
:100A10008093E2008091E1008E7E8093E1008091DE
:100A200051018E7E81608093510104C05D98CDCFCD
:100A30002898D6CF9F918F910F900FBE0F901F9047
:100A400018951F920F920FB60F921124CF92DF923A
:100A5000EF92FF920F931F932F933F934F935F93C8
:100A60006F937F938F939F93AF93BF93EF93FF9376
:100A7000CF93DF93CDB7DEB76C97DEBFCDBF1092BB
:100A8000E9008091E80083FFFBC168E0CE01459654
:100A90000E941D0282EF8093E8008D8987FF05C0C8
:100AA0009091E80090FFFCCF03C09EEF9093E80088
:100AB000982F907609F0C6C09E894F89588D2F894E
:100AC000F88C91110CC0803829F4809150018093EA
:100AD000F10002C01092F1001092F10045C1913076
:100AE00051F4811141C14130510509F03DC180915E
:100AF00050018D7F0BC0933061F4811135C14130BD
:100B0000510509F031C180915001826080935001FC
:100B10002BC1953049F48091E80080FFFCCF822FF3
:100B200080688093E30020C1963009F05EC00B8D91
:100B30001C8D22E01092E90010924E0110924D019E
:100B4000F21232C010924C0110924B010E94EB0144
:100B500099E0BE016F5F7F4FDB01E92F1D92EA959F
:100B6000E9F79983FA8291E09E8390EA98879AEF59
:100B7000998720914D0130914E01275F3F4F3C8373
:100B80002B838D831092E90010924E0110924D013B
:100B900010934C0100934B0149E050E080E00E942B
:100BA000C4010E94EB01E0C010934C0100934B0183
:100BB0000E944D01DC0112960D911C9113970115B5
:100BC000110509F4BBC0D801ED91FC910480F581B9
:100BD000E02DBE016B5E7F4FC8010995009709F0BB
:100BE000C7C0F80100851185EACF973009F445C1E7
:100BF000983021F481E08093F100B6C0993009F07B
:100C0000B3C0837009F039C1EDE0F1E081E031E07B
:100C100096E32081211109C08EE78093EA001092AB
:100C2000EA008F89809360019FC08093E900309330
:100C3000EB0021912093EC009093ED008F5F8730C3
:100C400041F7EACF8B8D9C8D1092E90010924E01F6
:100C500010924D0190934C0180934B01898D81112D
:100C600053C08E899D89913A49F4813209F005C1BA
:100C700047E050E064E071E080E0BBC0913209F0F1
:100C8000FCC0833269F48F89988DA0E0B0E0809336
:100C9000000190930101A0930201B093030164C08D
:100CA000803269F48091E80082FFFCCF67E084E045
:100CB00091E00E941D028BEF8093E80055C08232C4
:100CC00009F052C08F8980930B01EEEFFFE7859109
:100CD00094918B3F9C4D19F0E0E0F8E002C0EEEFFC
:100CE000FAE08091040190910501A0910601B09174
:100CF0000701803B9440A105B10509F09EC0809199
:100D00000B0180FF79C099C00E944D01FC01028156
:100D100013810115110509F4B0C0D801ED91FC91C2
:100D20000190F081E02DBE016B5E7F4FC8010995F7
:100D300081111AC0F80100851185EBCFF1E0FF1693
:100D400009F44EC0F3E0FF1298C08F89882309F49C
:100D50004AC0823089F440E86DE085EB91E00E9462
:100D60008F01882309F489C08EEF8093E80088C042
:100D700018161906CCF381C0813029F440E86BE0E5
:100D800089EA91E0ECCF833009F077C00E944D01F1
:100D9000DC011296ED90FC9013978E010F5F1F4FB0
:100DA0006801E114F10479F0D701ED91FC9106801E
:100DB000F781E02DB801C7010995080F111DF70152
:100DC000E084F184EECFD8011C92F601019000205E
:100DD000E9F73197BF016C197D0940E0C601BFCF2B
:100DE00067E971E002C063E971E0FB01449150E002
:100DF00080E80E94C401B8CFEE3F2AE0F20751F02C
:100E0000808191818737A7E79A0721F09093FF0AA5
:100E10008093FE0A87E797E7918380838091600043
:100E200080934F019BE088E10FB6F894A8958093DA
:100E300060000FBE9093600097CF808191818737CB
:100E4000974709F091CFA8958091600088618093C1
:100E5000600080914F0180936000EE3FBAE0FB0795
:100E600039F08091FE0A9091FF0A918380837CCFB4
:100E70001092FF0A1092FE0A77CF81E28093EB0076
:100E80006C960FB6F894DEBF0FBECDBFDF91CF9149
:100E9000FF91EF91BF91AF919F918F917F916F9152
:100EA0005F914F913F912F911F910F91FF90EF9084
:100EB000DF90CF900F900FBE0F901F9018951F924C
:100EC0000F920FB60F9211242F933F938F939F93FE
:100ED000AF93BF938091430190914401A09145014C
:100EE000B09146013091420123E0230F2D3720F4C9
:100EF0000196A11DB11D05C026E8230F0296A11D74
:100F0000B11D209342018093430190934401A0932B
:100F10004501B09346018091470190914801A0910D
:100F20004901B0914A010196A11DB11D809347016D
:100F300090934801A0934901B0934A01BF91AF91AA
:100F40009F918F913F912F910F900FBE0F901F9007
:100F50001895109264011092630188EE93E0A0E06E
:100F6000B0E08093650190936601A0936701B09310
:100F7000680187E191E090936201809361018FEFB6
:100F80009FEF90936E0180936D011092B7011092C4
:100F9000B8011092B9011092BA011092BB011092DF
:100FA000BC011092BD011092BE011092BF011092BF
:100FB000C0011092C1011092C2011092C30110929F
:100FC000C4011092C5011092C60180E090E09C011E
:100FD000285F3F4FF901E950FE4F895F9D4F108216
:100FE00011823296E817F907D1F7C901203231058D
:100FF00071F789E291E09093200280931F0285E2CD
:1010000091E090932202809321028AE090E0A0E098
:10101000B0E08093F7019093F801A093F901B093A9
:10102000FA011092FB011092FC011092FD01109246
:10103000FE010895CF93DF93CDB7DEB7A1970FB62A
:10104000F894DEBF0FBECDBF789484B5826084BDB6
:1010500084B5816084BD85B5826085BD85B58160BC
:1010600085BD80916E00816080936E00109281003A
:1010700080918100826080938100809181008160F5
:1010800080938100809180008160809380008091B6
:1010900091008260809391008091910081608093A3
:1010A0009100809190008160809390008091C100B8
:1010B00084608093C1008091C10082608093C100F0
:1010C0008091C10081608093C1008091C3008160E4
:1010D0008093C3008091C00082608093C0008091A3
:1010E000C20081608093C20080917A008460809306
:1010F0007A0080917A00826080937A0080917A00F1
:10110000816080937A0080917A00806880937A0071
:101110001092600110925001109251018091D700FD
:1011200081608093D70080EA8093D80089B5806180
:1011300089BD89B5826089BD09B400FEFDCF61E03B
:1011400070E080E090E00E94CF038091D8008F7C17
:1011500080618093D8008091E000807F8093E000E0
:101160008091E1008E7E8093E1008DE08093E2002B
:10117000559A209A5D9828981092F3011092F401E4
:101180001092F5011092F6011092B3011092B40181
:101190001092B5011092B6010E948F046B017C0180
:1011A0004B015C0188EB880E8BE0981EA11CB11CE2
:1011B0000E948F046C157D058E059F0528F086160C
:1011C0009706A806B906A0F760ED77E080E090E00A
:1011D0000E94CF038FEF9FEF90936E0180936D017C
:1011E0000E948F046093B3017093B4018093B501A2
:1011F0009093B6018DE291E00E949B040E948F04BF
:101200006B017C014B015C01EAE08E0E911CA11C7C
:10121000B11C0E948F046C157D058E059F0528F07A
:1012200086169706A806B906A0F781E08093C70145
:101230008FEF9FEF90936E0180936D0100E010E0BF
:10124000E0911F02F0912002E00FF11F61E0808128
:101250000E946E030F5F1F4F0430110589F700E0F5
:1012600010E0E0912102F0912202E00FF11F62E014
:1012700080810E946E030F5F1F4F0430110589F7B4
:1012800047EFA42E41E0B42EE12CF12C9924939445
:10129000E0911F02F0912002EE0DFF1D60E08081C1
:1012A0000E943F038501C12CD12CE0912102F091D5
:1012B0002202EC0DFD1D80810E94160321E0892B86
:1012C00009F020E0F8018085281719F02087918621
:1012D00002C0F8011186FFEFCF1ADF0A0E5F1F4F21
:1012E00084E0C816D10409F7E0911F02F0912002B2
:1012F000EE0DFF1D61E080810E943F03EFEFEE1ACB
:10130000FE0AF8E0AF0EB11C84E0E816F10409F023
:10131000BFCF0E948F046093FB017093FC01809308
:10132000FD019093FE017724739430E0A32E30E00A
:10133000B32E0E948F040091FB011091FC012091BB
:10134000FD013091FE01DC01CB01801B910BA20B52
:10135000B30B0091F7011091F8012091F901309140
:10136000FA0180179107A207B30708F451C027EFCD
:10137000822E21E0922EE12CF12CE0911F02F091BF
:101380002002EE0DFF1D60E080810E943F0384017A
:10139000C12CD12CE0912102F0912202EC0DFD1D17
:1013A00080810E94160321E0892B09F020E0F801DA
:1013B0008085281719F02087718602C0F8011186F0
:1013C000FFEFCF1ADF0A0E5F1F4F84E0C816D1046B
:1013D00009F7E0911F02F0912002EE0DFF1D61E080
:1013E00080810E943F03EFEFEE1AFE0AF8E08F0EB5
:1013F000911C84E0E816F10409F0BFCF0E948F042D
:101400006093FB017093FC018093FD019093FE01BA
:1014100087EFC82E81E0D82E94E0F92E00E010E08E
:10142000F601E00FF11F808519A2805D88A3CE012F
:1014300080960E949B048FE391E00E949B040E5FC4
:101440001F4F0830110561F78CE391E00E949B0467
:10145000FA94E8E0CE0ED11CF110E0CF8CE391E0DD
:101460000E949B04A114B10409F463CF0E94000000
:1014700060CFCF93DF931092FB011092FC0110928A
:10148000FD011092FE011092F7011092F8011092E6
:10149000F9011092FA01C0E0D0E0E0912102F09150
:1014A0002202EC0FFD1F61E080810E946E032196F5
:1014B000C430D10591F7C0E0D0E0E0911F02F09177
:1014C0002002EC0FFD1F60E080810E943F03219607
:1014D000C430D10591F7E7EFF1E01086118612864E
:1014E00013861486158616861786389682E0E731AD
:1014F000F80799F7DF91CF910895EE0FFF1F059040
:10150000F491E02D099481E090E0F8940C94880A1D
:1015100010E0C3EED0E004C0FE010E947D0A2196D7
:0A152000C43ED107C9F7F894FFCFCD
:10152A00FFFFFFFF00E100000000000000C1808112
:10153A00000000000000005402090475026A02BBA0
:10154A000279029702030405060708090A564D4460
:10155A0050565F317C315F564D4450560D0A002C6F
:02156A0000007F
:00000001FF
